{
  "contractName": "ExampleTokensSender",
  "abi": [
    {
      "constant": true,
      "inputs": [],
      "name": "owner",
      "outputs": [
        {
          "name": "",
          "type": "address"
        }
      ],
      "payable": false,
      "stateMutability": "view",
      "type": "function"
    },
    {
      "constant": false,
      "inputs": [
        {
          "name": "newOwner",
          "type": "address"
        }
      ],
      "name": "transferOwnership",
      "outputs": [],
      "payable": false,
      "stateMutability": "nonpayable",
      "type": "function"
    },
    {
      "constant": true,
      "inputs": [],
      "name": "notified",
      "outputs": [
        {
          "name": "",
          "type": "bool"
        }
      ],
      "payable": false,
      "stateMutability": "view",
      "type": "function"
    },
    {
      "inputs": [
        {
          "name": "_setInterface",
          "type": "bool"
        }
      ],
      "payable": false,
      "stateMutability": "nonpayable",
      "type": "constructor"
    },
    {
      "anonymous": false,
      "inputs": [
        {
          "indexed": true,
          "name": "previousOwner",
          "type": "address"
        },
        {
          "indexed": true,
          "name": "newOwner",
          "type": "address"
        }
      ],
      "name": "OwnershipTransferred",
      "type": "event"
    },
    {
      "constant": false,
      "inputs": [
        {
          "name": "operator",
          "type": "address"
        },
        {
          "name": "from",
          "type": "address"
        },
        {
          "name": "to",
          "type": "address"
        },
        {
          "name": "amount",
          "type": "uint256"
        },
        {
          "name": "userData",
          "type": "bytes"
        },
        {
          "name": "operatorData",
          "type": "bytes"
        }
      ],
      "name": "tokensToSend",
      "outputs": [],
      "payable": false,
      "stateMutability": "nonpayable",
      "type": "function"
    },
    {
      "constant": false,
      "inputs": [],
      "name": "acceptTokensToSend",
      "outputs": [],
      "payable": false,
      "stateMutability": "nonpayable",
      "type": "function"
    },
    {
      "constant": false,
      "inputs": [],
      "name": "rejectTokensToSend",
      "outputs": [],
      "payable": false,
      "stateMutability": "nonpayable",
      "type": "function"
    },
    {
      "constant": true,
      "inputs": [
        {
          "name": "addr",
          "type": "address"
        },
        {
          "name": "interfaceHash",
          "type": "bytes32"
        }
      ],
      "name": "canImplementInterfaceForAddress",
      "outputs": [
        {
          "name": "",
          "type": "bytes32"
        }
      ],
      "payable": false,
      "stateMutability": "view",
      "type": "function"
    }
  ],
  "bytecode": "0x608060405273be78655dff872d22b95ae366fb3477d977328ade6000806101000a81548173ffffffffffffffffffffffffffffffffffffffff021916908373ffffffffffffffffffffffffffffffffffffffff16021790555034801561006457600080fd5b5060405160208061091b8339810180604052810190808051906020019092919050505033600160006101000a81548173ffffffffffffffffffffffffffffffffffffffff021916908373ffffffffffffffffffffffffffffffffffffffff160217905550801561011d5761011c6040805190810160405280601281526020017f455243373737546f6b656e7353656e646572000000000000000000000000000081525030610158640100000000026401000000009004565b5b60018060146101000a81548160ff0219169083151502179055506000600160156101000a81548160ff021916908315150217905550506102dc565b6000826040518082805190602001908083835b602083101515610190578051825260208201915060208101905060208303925061016b565b6001836020036101000a038019825116818451168082178552505050505050905001915050604051809103902090506000809054906101000a900473ffffffffffffffffffffffffffffffffffffffff1673ffffffffffffffffffffffffffffffffffffffff166329965a1d3083856040518463ffffffff167c0100000000000000000000000000000000000000000000000000000000028152600401808473ffffffffffffffffffffffffffffffffffffffff1673ffffffffffffffffffffffffffffffffffffffff16815260200183600019166000191681526020018273ffffffffffffffffffffffffffffffffffffffff1673ffffffffffffffffffffffffffffffffffffffff1681526020019350505050600060405180830381600087803b1580156102bf57600080fd5b505af11580156102d3573d6000803e3d6000fd5b50505050505050565b610630806102eb6000396000f300608060405260043610610083576000357c0100000000000000000000000000000000000000000000000000000000900463ffffffff1680632522671b1461008857806375ab97821461009f5780637c907597146101b85780638da5cb5b146101cf578063f008325014610226578063f2fde38b14610293578063f438da1e146102d6575b600080fd5b34801561009457600080fd5b5061009d610305565b005b3480156100ab57600080fd5b506101b6600480360381019080803573ffffffffffffffffffffffffffffffffffffffff169060200190929190803573ffffffffffffffffffffffffffffffffffffffff169060200190929190803573ffffffffffffffffffffffffffffffffffffffff16906020019092919080359060200190929190803590602001908201803590602001908080601f0160208091040260200160405190810160405280939291908181526020018383808284378201915050505050509192919290803590602001908201803590602001908080601f016020809104026020016040519081016040528093929190818152602001838380828437820191505050505050919291929050505061037e565b005b3480156101c457600080fd5b506101cd6103bb565b005b3480156101db57600080fd5b506101e4610433565b604051808273ffffffffffffffffffffffffffffffffffffffff1673ffffffffffffffffffffffffffffffffffffffff16815260200191505060405180910390f35b34801561023257600080fd5b50610275600480360381019080803573ffffffffffffffffffffffffffffffffffffffff1690602001909291908035600019169060200190929190505050610459565b60405180826000191660001916815260200191505060405180910390f35b34801561029f57600080fd5b506102d4600480360381019080803573ffffffffffffffffffffffffffffffffffffffff169060200190929190505050610499565b005b3480156102e257600080fd5b506102eb6105f1565b604051808215151515815260200191505060405180910390f35b600160009054906101000a900473ffffffffffffffffffffffffffffffffffffffff1673ffffffffffffffffffffffffffffffffffffffff163373ffffffffffffffffffffffffffffffffffffffff1614151561036157600080fd5b6000600160146101000a81548160ff021916908315150217905550565b600160149054906101000a900460ff16151561039957600080fd5b60018060156101000a81548160ff021916908315150217905550505050505050565b600160009054906101000a900473ffffffffffffffffffffffffffffffffffffffff1673ffffffffffffffffffffffffffffffffffffffff163373ffffffffffffffffffffffffffffffffffffffff1614151561041757600080fd5b60018060146101000a81548160ff021916908315150217905550565b600160009054906101000a900473ffffffffffffffffffffffffffffffffffffffff1681565b600060405180807f4552433832305f4143434550545f4d414749430000000000000000000000000081525060130190506040518091039020905092915050565b600160009054906101000a900473ffffffffffffffffffffffffffffffffffffffff1673ffffffffffffffffffffffffffffffffffffffff163373ffffffffffffffffffffffffffffffffffffffff161415156104f557600080fd5b600073ffffffffffffffffffffffffffffffffffffffff168173ffffffffffffffffffffffffffffffffffffffff161415151561053157600080fd5b8073ffffffffffffffffffffffffffffffffffffffff16600160009054906101000a900473ffffffffffffffffffffffffffffffffffffffff1673ffffffffffffffffffffffffffffffffffffffff167f8be0079c531659141344cd1fd0a4f28419497f9722a3daafe3b4186f6b6457e060405160405180910390a380600160006101000a81548173ffffffffffffffffffffffffffffffffffffffff021916908373ffffffffffffffffffffffffffffffffffffffff16021790555050565b600160159054906101000a900460ff16815600a165627a7a72305820aafaeae25174c93821d690ca52bd9b665355a7fee47d141ac0036d8a33685aa00029",
  "source": "/* This Source Code Form is subject to the terms of the Mozilla Public\n * License, v. 2.0. If a copy of the MPL was not distributed with this\n * file, You can obtain one at http://mozilla.org/MPL/2.0/.\n *\n * This code has not been reviewed.\n * Do not use or deploy this code before reviewing it personally first.\n */\npragma solidity 0.4.24;\n\nimport { ERC820Implementer } from \"eip820/contracts/ERC820Implementer.sol\";\nimport { ERC820ImplementerInterface } from \"eip820/contracts/ERC820ImplementerInterface.sol\";\nimport { Ownable } from \"openzeppelin-solidity/contracts/ownership/Ownable.sol\";\nimport { ERC777TokensSender } from \"./ERC777/ERC777TokensSender.sol\";\n\n\ncontract ExampleTokensSender is ERC820Implementer, ERC820ImplementerInterface, ERC777TokensSender, Ownable {\n\n    bool private allowTokensToSend;\n    bool public notified;\n\n    constructor(bool _setInterface) public {\n        if (_setInterface) { setInterfaceImplementation(\"ERC777TokensSender\", this); }\n        allowTokensToSend = true;\n        notified = false;\n    }\n\n    function tokensToSend(\n        address operator,   // solhint-disable no-unused-vars\n        address from,\n        address to,\n        uint amount,\n        bytes userData,\n        bytes operatorData\n    )  // solhint-enable no-unused-vars\n    public {\n        require(allowTokensToSend);\n        notified = true;\n    }\n\n    function acceptTokensToSend() public onlyOwner { allowTokensToSend = true; }\n\n    function rejectTokensToSend() public onlyOwner { allowTokensToSend = false; }\n\n    // solhint-disable-next-line no-unused-vars\n    function canImplementInterfaceForAddress(address addr, bytes32 interfaceHash) public view returns(bytes32) {\n        return ERC820_ACCEPT_MAGIC;\n    }\n\n}\n",
  "sourcePath": "/media/s120/src/herc/contracts/herc-erc777-token/contracts/ExampleTokensSender.sol",
  "compiler": {
    "name": "solc",
    "version": "0.4.24+commit.e67f0147.Emscripten.clang"
  },
  "schemaVersion": "2.0.1",
  "updatedAt": "2018-08-06T06:01:05.269Z"
}