{
  "contractName": "ExampleTokensRecipient",
  "abi": [
    {
      "constant": true,
      "inputs": [],
      "name": "owner",
      "outputs": [
        {
          "name": "",
          "type": "address"
        }
      ],
      "payable": false,
      "stateMutability": "view",
      "type": "function"
    },
    {
      "constant": false,
      "inputs": [
        {
          "name": "newOwner",
          "type": "address"
        }
      ],
      "name": "transferOwnership",
      "outputs": [],
      "payable": false,
      "stateMutability": "nonpayable",
      "type": "function"
    },
    {
      "constant": true,
      "inputs": [],
      "name": "notified",
      "outputs": [
        {
          "name": "",
          "type": "bool"
        }
      ],
      "payable": false,
      "stateMutability": "view",
      "type": "function"
    },
    {
      "inputs": [
        {
          "name": "_setInterface",
          "type": "bool"
        }
      ],
      "payable": false,
      "stateMutability": "nonpayable",
      "type": "constructor"
    },
    {
      "anonymous": false,
      "inputs": [
        {
          "indexed": true,
          "name": "previousOwner",
          "type": "address"
        },
        {
          "indexed": true,
          "name": "newOwner",
          "type": "address"
        }
      ],
      "name": "OwnershipTransferred",
      "type": "event"
    },
    {
      "constant": false,
      "inputs": [
        {
          "name": "operator",
          "type": "address"
        },
        {
          "name": "from",
          "type": "address"
        },
        {
          "name": "to",
          "type": "address"
        },
        {
          "name": "amount",
          "type": "uint256"
        },
        {
          "name": "userData",
          "type": "bytes"
        },
        {
          "name": "operatorData",
          "type": "bytes"
        }
      ],
      "name": "tokensReceived",
      "outputs": [],
      "payable": false,
      "stateMutability": "nonpayable",
      "type": "function"
    },
    {
      "constant": false,
      "inputs": [],
      "name": "acceptTokens",
      "outputs": [],
      "payable": false,
      "stateMutability": "nonpayable",
      "type": "function"
    },
    {
      "constant": false,
      "inputs": [],
      "name": "rejectTokens",
      "outputs": [],
      "payable": false,
      "stateMutability": "nonpayable",
      "type": "function"
    },
    {
      "constant": true,
      "inputs": [
        {
          "name": "addr",
          "type": "address"
        },
        {
          "name": "interfaceHash",
          "type": "bytes32"
        }
      ],
      "name": "canImplementInterfaceForAddress",
      "outputs": [
        {
          "name": "",
          "type": "bytes32"
        }
      ],
      "payable": false,
      "stateMutability": "view",
      "type": "function"
    }
  ],
  "bytecode": "0x608060405273be78655dff872d22b95ae366fb3477d977328ade6000806101000a81548173ffffffffffffffffffffffffffffffffffffffff021916908373ffffffffffffffffffffffffffffffffffffffff16021790555034801561006457600080fd5b5060405160208061091a8339810180604052810190808051906020019092919050505033600160006101000a81548173ffffffffffffffffffffffffffffffffffffffff021916908373ffffffffffffffffffffffffffffffffffffffff160217905550801561011d5761011c6040805190810160405280601581526020017f455243373737546f6b656e73526563697069656e74000000000000000000000081525030610158640100000000026401000000009004565b5b60018060146101000a81548160ff0219169083151502179055506000600160156101000a81548160ff021916908315150217905550506102dc565b6000826040518082805190602001908083835b602083101515610190578051825260208201915060208101905060208303925061016b565b6001836020036101000a038019825116818451168082178552505050505050905001915050604051809103902090506000809054906101000a900473ffffffffffffffffffffffffffffffffffffffff1673ffffffffffffffffffffffffffffffffffffffff166329965a1d3083856040518463ffffffff167c0100000000000000000000000000000000000000000000000000000000028152600401808473ffffffffffffffffffffffffffffffffffffffff1673ffffffffffffffffffffffffffffffffffffffff16815260200183600019166000191681526020018273ffffffffffffffffffffffffffffffffffffffff1673ffffffffffffffffffffffffffffffffffffffff1681526020019350505050600060405180830381600087803b1580156102bf57600080fd5b505af11580156102d3573d6000803e3d6000fd5b50505050505050565b61062f806102eb6000396000f300608060405260043610610082576000357c0100000000000000000000000000000000000000000000000000000000900463ffffffff16806223de29146100875780638da5cb5b146101a057806399a46be3146101f7578063f00832501461020e578063f2fde38b1461027b578063f438da1e146102be578063f5c89c6f146102ed575b600080fd5b34801561009357600080fd5b5061019e600480360381019080803573ffffffffffffffffffffffffffffffffffffffff169060200190929190803573ffffffffffffffffffffffffffffffffffffffff169060200190929190803573ffffffffffffffffffffffffffffffffffffffff16906020019092919080359060200190929190803590602001908201803590602001908080601f0160208091040260200160405190810160405280939291908181526020018383808284378201915050505050509192919290803590602001908201803590602001908080601f0160208091040260200160405190810160405280939291908181526020018383808284378201915050505050509192919290505050610304565b005b3480156101ac57600080fd5b506101b5610341565b604051808273ffffffffffffffffffffffffffffffffffffffff1673ffffffffffffffffffffffffffffffffffffffff16815260200191505060405180910390f35b34801561020357600080fd5b5061020c610367565b005b34801561021a57600080fd5b5061025d600480360381019080803573ffffffffffffffffffffffffffffffffffffffff16906020019092919080356000191690602001909291905050506103e0565b60405180826000191660001916815260200191505060405180910390f35b34801561028757600080fd5b506102bc600480360381019080803573ffffffffffffffffffffffffffffffffffffffff169060200190929190505050610420565b005b3480156102ca57600080fd5b506102d3610578565b604051808215151515815260200191505060405180910390f35b3480156102f957600080fd5b5061030261058b565b005b600160149054906101000a900460ff16151561031f57600080fd5b60018060156101000a81548160ff021916908315150217905550505050505050565b600160009054906101000a900473ffffffffffffffffffffffffffffffffffffffff1681565b600160009054906101000a900473ffffffffffffffffffffffffffffffffffffffff1673ffffffffffffffffffffffffffffffffffffffff163373ffffffffffffffffffffffffffffffffffffffff161415156103c357600080fd5b6000600160146101000a81548160ff021916908315150217905550565b600060405180807f4552433832305f4143434550545f4d414749430000000000000000000000000081525060130190506040518091039020905092915050565b600160009054906101000a900473ffffffffffffffffffffffffffffffffffffffff1673ffffffffffffffffffffffffffffffffffffffff163373ffffffffffffffffffffffffffffffffffffffff1614151561047c57600080fd5b600073ffffffffffffffffffffffffffffffffffffffff168173ffffffffffffffffffffffffffffffffffffffff16141515156104b857600080fd5b8073ffffffffffffffffffffffffffffffffffffffff16600160009054906101000a900473ffffffffffffffffffffffffffffffffffffffff1673ffffffffffffffffffffffffffffffffffffffff167f8be0079c531659141344cd1fd0a4f28419497f9722a3daafe3b4186f6b6457e060405160405180910390a380600160006101000a81548173ffffffffffffffffffffffffffffffffffffffff021916908373ffffffffffffffffffffffffffffffffffffffff16021790555050565b600160159054906101000a900460ff1681565b600160009054906101000a900473ffffffffffffffffffffffffffffffffffffffff1673ffffffffffffffffffffffffffffffffffffffff163373ffffffffffffffffffffffffffffffffffffffff161415156105e757600080fd5b60018060146101000a81548160ff0219169083151502179055505600a165627a7a723058204c29fae7bd6cfb8226ce4fe683aa1f5e974188bffe8e2aca3093924aa91652610029",
  "source": "/* This Source Code Form is subject to the terms of the Mozilla Public\n * License, v. 2.0. If a copy of the MPL was not distributed with this\n * file, You can obtain one at http://mozilla.org/MPL/2.0/.\n *\n * This code has not been reviewed.\n * Do not use or deploy this code before reviewing it personally first.\n */\npragma solidity 0.4.24;\n\nimport { ERC820Implementer } from \"eip820/contracts/ERC820Implementer.sol\";\nimport { ERC820ImplementerInterface } from \"eip820/contracts/ERC820ImplementerInterface.sol\";\nimport { Ownable } from \"openzeppelin-solidity/contracts/ownership/Ownable.sol\";\nimport { ERC777TokensRecipient } from \"./ERC777/ERC777TokensRecipient.sol\";\n\n\ncontract ExampleTokensRecipient is ERC820Implementer, ERC820ImplementerInterface, ERC777TokensRecipient, Ownable {\n\n    bool private allowTokensReceived;\n    bool public notified;\n\n    constructor(bool _setInterface) public {\n        if (_setInterface) { setInterfaceImplementation(\"ERC777TokensRecipient\", this); }\n        allowTokensReceived = true;\n        notified = false;\n    }\n\n    function tokensReceived(\n        address operator,  // solhint-disable no-unused-vars\n        address from,\n        address to,\n        uint amount,\n        bytes userData,\n        bytes operatorData\n    )  // solhint-enable no-unused-vars\n        public\n    {\n        require(allowTokensReceived);\n        notified = true;\n    }\n\n    function acceptTokens() public onlyOwner { allowTokensReceived = true; }\n\n    function rejectTokens() public onlyOwner { allowTokensReceived = false; }\n\n    // solhint-disable-next-line no-unused-vars\n    function canImplementInterfaceForAddress(address addr, bytes32 interfaceHash) public view returns(bytes32) {\n        return ERC820_ACCEPT_MAGIC;\n    }\n}\n",
  "sourcePath": "/media/s120/src/herc/contracts/herc-erc777-token/contracts/ExampleTokensRecipient.sol",
  "compiler": {
    "name": "solc",
    "version": "0.4.24+commit.e67f0147.Emscripten.clang"
  },
  "schemaVersion": "2.0.1",
  "updatedAt": "2018-08-06T06:01:05.268Z"
}